{
  "contractName": "StudentContract",
  "abi": [
    {
      "inputs": [],
      "stateMutability": "nonpayable",
      "type": "constructor"
    },
    {
      "inputs": [],
      "name": "student",
      "outputs": [
        {
          "internalType": "address",
          "name": "",
          "type": "address"
        }
      ],
      "stateMutability": "view",
      "type": "function"
    },
    {
      "inputs": [],
      "name": "studentNumber",
      "outputs": [
        {
          "internalType": "uint256",
          "name": "",
          "type": "uint256"
        }
      ],
      "stateMutability": "view",
      "type": "function"
    },
    {
      "inputs": [
        {
          "internalType": "uint256",
          "name": "_studentNumber",
          "type": "uint256"
        }
      ],
      "name": "setStudentNumber",
      "outputs": [],
      "stateMutability": "payable",
      "type": "function"
    },
    {
      "inputs": [],
      "name": "getStudentNumber",
      "outputs": [
        {
          "internalType": "uint256",
          "name": "",
          "type": "uint256"
        }
      ],
      "stateMutability": "view",
      "type": "function"
    }
  ],
  "bytecode": "0x608060405234801561000f575f80fd5b503360015f6101000a81548173ffffffffffffffffffffffffffffffffffffffff021916908373ffffffffffffffffffffffffffffffffffffffff1602179055505f60025f60015f9054906101000a900473ffffffffffffffffffffffffffffffffffffffff1673ffffffffffffffffffffffffffffffffffffffff1673ffffffffffffffffffffffffffffffffffffffff1681526020019081526020015f2081905550610353806100c05f395ff3fe60806040526004361061003e575f3560e01c8063484a0d4114610042578063699450e81461006c578063b1a2737714610096578063b6037759146100c0575b5f80fd5b34801561004d575f80fd5b506100566100dc565b60405161006391906101db565b60405180910390f35b348015610077575f80fd5b506100806100e1565b60405161008d9190610233565b60405180910390f35b3480156100a1575f80fd5b506100aa610106565b6040516100b791906101db565b60405180910390f35b6100da60048036038101906100d5919061027a565b61010e565b005b5f5481565b60015f9054906101000a900473ffffffffffffffffffffffffffffffffffffffff1681565b5f8054905090565b66132f4579c980003414610157576040517f08c379a000000000000000000000000000000000000000000000000000000000815260040161014e906102ff565b60405180910390fd5b805f819055508060025f60015f9054906101000a900473ffffffffffffffffffffffffffffffffffffffff1673ffffffffffffffffffffffffffffffffffffffff1673ffffffffffffffffffffffffffffffffffffffff1681526020019081526020015f208190555050565b5f819050919050565b6101d5816101c3565b82525050565b5f6020820190506101ee5f8301846101cc565b92915050565b5f73ffffffffffffffffffffffffffffffffffffffff82169050919050565b5f61021d826101f4565b9050919050565b61022d81610213565b82525050565b5f6020820190506102465f830184610224565b92915050565b5f80fd5b610259816101c3565b8114610263575f80fd5b50565b5f8135905061027481610250565b92915050565b5f6020828403121561028f5761028e61024c565b5b5f61029c84828501610266565b91505092915050565b5f82825260208201905092915050565b7f416d6f756e74206d75737420626520302e3030353420657468657200000000005f82015250565b5f6102e9601b836102a5565b91506102f4826102b5565b602082019050919050565b5f6020820190508181035f830152610316816102dd565b905091905056fea2646970667358221220ec0185e55a18c29f04c29176feeeb1ea9662e869758a57a10f386a286487a7d064736f6c63430008150033",
  "immutableReferences": {},
  "source": "pragma solidity >=0.5.0; \ncontract StudentContract {\n    uint public studentNumber ;\n    address public student ;\n    mapping ( address => uint ) studentToStudentNumber ; \n    constructor () {\n        student = msg.sender ;\n        studentToStudentNumber [ student ] = 0; \n    }\n    function setStudentNumber ( uint _studentNumber ) public payable { \n        require(msg.value == 5400000000000000, \"Amount must be 0.0054 ether\");\n        studentNumber = _studentNumber ; \n        studentToStudentNumber [ student ] = _studentNumber ;\n    } \n\n    function getStudentNumber() public view returns (uint) {\n        return studentNumber;\n    }\n}",
  "sourcePath": "/Users/satnam/Desktop/code/studentNumberContract/contracts/StudentContract.sol",
  "compiler": {
    "name": "solc",
    "version": "0.8.21+commit.d9974bed.Emscripten.clang"
  },
  "schemaVersion": "3.4.16",
  "updatedAt": "2023-11-23T00:17:49.985Z",
  "devdoc": {
    "kind": "dev",
    "methods": {},
    "version": 1
  },
  "userdoc": {
    "kind": "user",
    "methods": {},
    "version": 1
  }
}