{
  "contractName": "StudentContract",
  "abi": [
    {
      "inputs": [],
      "stateMutability": "nonpayable",
      "type": "constructor"
    },
    {
      "inputs": [],
      "name": "student",
      "outputs": [
        {
          "internalType": "address",
          "name": "",
          "type": "address"
        }
      ],
      "stateMutability": "view",
      "type": "function",
      "constant": true
    },
    {
      "inputs": [],
      "name": "studentNumber",
      "outputs": [
        {
          "internalType": "uint256",
          "name": "",
          "type": "uint256"
        }
      ],
      "stateMutability": "view",
      "type": "function",
      "constant": true
    },
    {
      "inputs": [
        {
          "internalType": "uint256",
          "name": "_studentNumber",
          "type": "uint256"
        }
      ],
      "name": "setStudentNumber",
      "outputs": [],
      "stateMutability": "payable",
      "type": "function",
      "payable": true
    },
    {
      "inputs": [],
      "name": "getStudentNumber",
      "outputs": [
        {
          "internalType": "uint256",
          "name": "",
          "type": "uint256"
        }
      ],
      "stateMutability": "view",
      "type": "function",
      "constant": true
    },
    {
      "inputs": [
        {
          "internalType": "uint256",
          "name": "_studentNumber",
          "type": "uint256"
        }
      ],
      "name": "methodExample1",
      "outputs": [],
      "stateMutability": "payable",
      "type": "function",
      "payable": true
    }
  ],
  "bytecode": "0x608060405234801561001057600080fd5b5033600160006101000a81548173ffffffffffffffffffffffffffffffffffffffff021916908373ffffffffffffffffffffffffffffffffffffffff160217905550600060026000600160009054906101000a900473ffffffffffffffffffffffffffffffffffffffff1673ffffffffffffffffffffffffffffffffffffffff1673ffffffffffffffffffffffffffffffffffffffff1681526020019081526020016000208190555061051b806100c86000396000f3fe60806040526004361061004a5760003560e01c806346a305c11461004f578063484a0d411461006b578063699450e814610096578063b1a27377146100c1578063b6037759146100ec575b600080fd5b610069600480360381019061006491906102bb565b610108565b005b34801561007757600080fd5b506100806101b8565b60405161008d91906103dd565b60405180910390f35b3480156100a257600080fd5b506100ab6101be565b6040516100b89190610382565b60405180910390f35b3480156100cd57600080fd5b506100d66101e4565b6040516100e391906103dd565b60405180910390f35b610106600480360381019061010191906102bb565b6101ed565b005b6000620186a0905060006404a817c800905080826101269190610409565b341015610168576040517f08c379a000000000000000000000000000000000000000000000000000000000815260040161015f9061039d565b60405180910390fd5b8260008190555082600260003373ffffffffffffffffffffffffffffffffffffffff1673ffffffffffffffffffffffffffffffffffffffff16815260200190815260200160002081905550505050565b60005481565b600160009054906101000a900473ffffffffffffffffffffffffffffffffffffffff1681565b60008054905090565b66132f4579c980003414610236576040517f08c379a000000000000000000000000000000000000000000000000000000000815260040161022d906103bd565b60405180910390fd5b806000819055508060026000600160009054906101000a900473ffffffffffffffffffffffffffffffffffffffff1673ffffffffffffffffffffffffffffffffffffffff1673ffffffffffffffffffffffffffffffffffffffff1681526020019081526020016000208190555050565b6000813590506102b5816104ce565b92915050565b6000602082840312156102cd57600080fd5b60006102db848285016102a6565b91505092915050565b6102ed81610463565b82525050565b6000610300601a836103f8565b91507f4e6f7420656e6f7567682045746865722070726f76696465642e0000000000006000830152602082019050919050565b6000610340601b836103f8565b91507f416d6f756e74206d75737420626520302e3030353420657468657200000000006000830152602082019050919050565b61037c81610495565b82525050565b600060208201905061039760008301846102e4565b92915050565b600060208201905081810360008301526103b6816102f3565b9050919050565b600060208201905081810360008301526103d681610333565b9050919050565b60006020820190506103f26000830184610373565b92915050565b600082825260208201905092915050565b600061041482610495565b915061041f83610495565b9250817fffffffffffffffffffffffffffffffffffffffffffffffffffffffffffffffff04831182151516156104585761045761049f565b5b828202905092915050565b600061046e82610475565b9050919050565b600073ffffffffffffffffffffffffffffffffffffffff82169050919050565b6000819050919050565b7f4e487b7100000000000000000000000000000000000000000000000000000000600052601160045260246000fd5b6104d781610495565b81146104e257600080fd5b5056fea26469706673582212201e5148db78ade21ae166bc34d7c08b5e5cd8a3370fb5efe7361527061845cb0664736f6c63430008000033",
  "immutableReferences": {},
  "source": "//SPDX-License-Identifier: MIT\npragma solidity >=0.5.0; \ncontract StudentContract {\n    uint public studentNumber ;\n    address public student ;\n    mapping ( address => uint ) studentToStudentNumber ; \n    constructor () {\n        student = msg.sender ;\n        studentToStudentNumber [ student ] = 0; \n    }\n    function setStudentNumber ( uint _studentNumber ) public payable { \n        require(msg.value == 5400000000000000, \"Amount must be 0.0054 ether\");\n        studentNumber = _studentNumber ; \n        studentToStudentNumber [ student ] = _studentNumber ;\n    } \n\n    function getStudentNumber() public view returns (uint) {\n        return studentNumber;\n    }\n\n    // La nouvelle fonction methodExample1\n    function methodExample1(uint _studentNumber) public payable {\n        // Cot en gaz pour l'excution de la mthode\n        uint gas = 100000; // exemple de quantit de gaz\n        uint gasPrice = 20000000000; // exemple de prix unitaire du gaz en wei\n\n        // Vrifier si l'metteur a assez de fonds pour payer le gaz\n        require(msg.value >= gas * gasPrice, \"Not enough Ether provided.\");\n\n        // Logique pour ajouter le numro d'tudiant\n        studentNumber = _studentNumber;\n        studentToStudentNumber[msg.sender] = _studentNumber;\n    }\n}\n",
  "sourcePath": "/Users/satnam/Desktop/code/studentNumberContract/contracts/StudentContract.sol",
  "compiler": {
    "name": "solc",
    "version": "0.8.0+commit.c7dfd78e.Emscripten.clang"
  },
  "schemaVersion": "3.4.16",
  "updatedAt": "2023-12-03T18:37:07.762Z",
  "networkType": "ethereum",
  "devdoc": {
    "kind": "dev",
    "methods": {},
    "version": 1
  },
  "userdoc": {
    "kind": "user",
    "methods": {},
    "version": 1
  }
}